{
  "contractName": "Lottery",
  "abi": [
    {
      "constant": true,
      "inputs": [
        {
          "name": "",
          "type": "uint256"
        }
      ],
      "name": "numbers",
      "outputs": [
        {
          "name": "",
          "type": "uint8"
        }
      ],
      "payable": false,
      "stateMutability": "view",
      "type": "function"
    },
    {
      "inputs": [],
      "payable": false,
      "stateMutability": "nonpayable",
      "type": "constructor"
    },
    {
      "constant": false,
      "inputs": [
        {
          "name": "x",
          "type": "bytes32"
        }
      ],
      "name": "enterHash",
      "outputs": [],
      "payable": true,
      "stateMutability": "payable",
      "type": "function"
    },
    {
      "constant": false,
      "inputs": [
        {
          "name": "number",
          "type": "uint8"
        }
      ],
      "name": "enterNumber",
      "outputs": [],
      "payable": false,
      "stateMutability": "nonpayable",
      "type": "function"
    },
    {
      "constant": false,
      "inputs": [],
      "name": "determineWinner",
      "outputs": [],
      "payable": false,
      "stateMutability": "nonpayable",
      "type": "function"
    },
    {
      "constant": false,
      "inputs": [],
      "name": "end",
      "outputs": [],
      "payable": false,
      "stateMutability": "nonpayable",
      "type": "function"
    },
    {
      "constant": false,
      "inputs": [
        {
          "name": "targetTwin",
          "type": "address"
        }
      ],
      "name": "setTwin",
      "outputs": [],
      "payable": false,
      "stateMutability": "nonpayable",
      "type": "function"
    },
    {
      "constant": false,
      "inputs": [],
      "name": "lockContract",
      "outputs": [],
      "payable": false,
      "stateMutability": "nonpayable",
      "type": "function"
    },
    {
      "constant": false,
      "inputs": [],
      "name": "runAcceptPhase",
      "outputs": [],
      "payable": false,
      "stateMutability": "nonpayable",
      "type": "function"
    },
    {
      "constant": false,
      "inputs": [],
      "name": "runVerifyPhase",
      "outputs": [],
      "payable": false,
      "stateMutability": "nonpayable",
      "type": "function"
    }
  ],
  "bytecode": "0x608060405234801561001057600080fd5b5033600360006101000a81548173ffffffffffffffffffffffffffffffffffffffff021916908373ffffffffffffffffffffffffffffffffffffffff1602179055506000600460146101000a81548160ff0219169083600581111561007157fe5b0217905550610bb9806100856000396000f300608060405260043610610099576000357c0100000000000000000000000000000000000000000000000000000000900463ffffffff16806311f132101461009e578063137da17c146100c25780631e692786146100f257806333b16d9314610109578063666d931c14610120578063753868e314610137578063c78aa6681461014e578063d39fa23314610191578063efbe1c1c146101d8575b600080fd5b6100c060048036038101908080356000191690602001909291905050506101ef565b005b3480156100ce57600080fd5b506100f0600480360381019080803560ff169060200190929190505050610283565b005b3480156100fe57600080fd5b506101076104d2565b005b34801561011557600080fd5b5061011e610588565b005b34801561012c57600080fd5b50610135610621565b005b34801561014357600080fd5b5061014c6106d7565b005b34801561015a57600080fd5b5061018f600480360381019080803573ffffffffffffffffffffffffffffffffffffffff1690602001909291905050506107eb565b005b34801561019d57600080fd5b506101bc600480360381019080803590602001909291905050506108e8565b604051808260ff1660ff16815260200191505060405180910390f35b3480156101e457600080fd5b506101ed61091b565b005b600260058111156101fc57fe5b600460149054906101000a900460ff16600581111561021757fe5b14151561022357600080fd5b66038d7ea4c680003411151561023857600080fd5b80600160003373ffffffffffffffffffffffffffffffffffffffff1673ffffffffffffffffffffffffffffffffffffffff168152602001908152602001600020816000191690555050565b6003600581111561029057fe5b600460149054906101000a900460ff1660058111156102ab57fe5b1415156102b757600080fd5b60fa8160ff16111515156102ca57600080fd5b600160003373ffffffffffffffffffffffffffffffffffffffff1673ffffffffffffffffffffffffffffffffffffffff16815260200190815260200160002054600019168133604051602001808360ff1660ff167f01000000000000000000000000000000000000000000000000000000000000000281526001018273ffffffffffffffffffffffffffffffffffffffff1673ffffffffffffffffffffffffffffffffffffffff166c01000000000000000000000000028152601401925050506040516020818303038152906040526040518082805190602001908083835b6020831015156103ce57805182526020820191506020810190506020830392506103a9565b6001836020036101000a03801982511681845116808217855250505050505090500191505060405180910390206000191614151561040b57600080fd5b6000808260ff1660ff1681526020019081526020016000203390806001815401808255809150509060018203906000526020600020016000909192909190916101000a81548173ffffffffffffffffffffffffffffffffffffffff021916908373ffffffffffffffffffffffffffffffffffffffff16021790555050600281908060018154018082558091505090600182039060005260206000209060209182820401919006909192909190916101000a81548160ff021916908360ff1602179055505050565b600360009054906101000a900473ffffffffffffffffffffffffffffffffffffffff1673ffffffffffffffffffffffffffffffffffffffff163373ffffffffffffffffffffffffffffffffffffffff1614151561052e57600080fd5b6002600581111561053b57fe5b600460149054906101000a900460ff16600581111561055657fe5b14151561056257600080fd5b6003600460146101000a81548160ff0219169083600581111561058157fe5b0217905550565b6000600360009054906101000a900473ffffffffffffffffffffffffffffffffffffffff1673ffffffffffffffffffffffffffffffffffffffff163373ffffffffffffffffffffffffffffffffffffffff161415156105e657600080fd5b6005600460146101000a81548160ff0219169083600581111561060557fe5b02179055506106126109b2565b905061061d81610a47565b5050565b600360009054906101000a900473ffffffffffffffffffffffffffffffffffffffff1673ffffffffffffffffffffffffffffffffffffffff163373ffffffffffffffffffffffffffffffffffffffff1614151561067d57600080fd5b6001600581111561068a57fe5b600460149054906101000a900460ff1660058111156106a557fe5b1415156106b157600080fd5b6002600460146101000a81548160ff021916908360058111156106d057fe5b0217905550565b600360009054906101000a900473ffffffffffffffffffffffffffffffffffffffff1673ffffffffffffffffffffffffffffffffffffffff163373ffffffffffffffffffffffffffffffffffffffff1614151561073357600080fd5b6000600581111561074057fe5b600460149054906101000a900460ff16600581111561075b57fe5b14151561076757600080fd5b600073ffffffffffffffffffffffffffffffffffffffff16600460009054906101000a900473ffffffffffffffffffffffffffffffffffffffff1673ffffffffffffffffffffffffffffffffffffffff16141515156107c557600080fd5b6001600460146101000a81548160ff021916908360058111156107e457fe5b0217905550565b600360009054906101000a900473ffffffffffffffffffffffffffffffffffffffff1673ffffffffffffffffffffffffffffffffffffffff163373ffffffffffffffffffffffffffffffffffffffff1614151561084757600080fd5b600073ffffffffffffffffffffffffffffffffffffffff16600460009054906101000a900473ffffffffffffffffffffffffffffffffffffffff1673ffffffffffffffffffffffffffffffffffffffff161415156108a457600080fd5b80600460006101000a81548173ffffffffffffffffffffffffffffffffffffffff021916908373ffffffffffffffffffffffffffffffffffffffff16021790555050565b6002818154811015156108f757fe5b9060005260206000209060209182820401919006915054906101000a900460ff1681565b600360009054906101000a900473ffffffffffffffffffffffffffffffffffffffff1673ffffffffffffffffffffffffffffffffffffffff163373ffffffffffffffffffffffffffffffffffffffff1614151561097757600080fd5b600360009054906101000a900473ffffffffffffffffffffffffffffffffffffffff1673ffffffffffffffffffffffffffffffffffffffff16ff5b6000806000600260008154811015156109c757fe5b90600052602060002090602091828204019190069054906101000a900460ff169150600190505b6002805490508160ff161015610a3f5760028160ff16815481101515610a1057fe5b90600052602060002090602091828204019190069054906101000a900460ff16821891508060010190506109ee565b819250505090565b6000806000806000808660ff1660ff168152602001908152602001600020805490509250600183141515610a7a57600080fd5b6000831115610b6b57826002023073ffffffffffffffffffffffffffffffffffffffff1631811515610aa857fe5b049150600090505b82811015610b6a57600081141515610ac757600080fd5b6000808660ff1660ff16815260200190815260200160002081815481101515610aec57fe5b9060005260206000200160009054906101000a900473ffffffffffffffffffffffffffffffffffffffff1673ffffffffffffffffffffffffffffffffffffffff166108fc839081150290604051600060405180830381858888f19350505050158015610b5c573d6000803e3d6000fd5b508080600101915050610ab0565b5b3073ffffffffffffffffffffffffffffffffffffffff163193505050509190505600a165627a7a72305820e26a29519568a8a6f3c4cf98d4df05277a2e86be238fe37f768abcee428f3e040029",
  "source": "pragma solidity ^0.4.24;\n\ncontract Lottery {\n\n    mapping (uint8 => address[]) playersByNumber;\n    mapping (address => bytes32) playersHash;\n\n    uint8[] public numbers;\n\n    address owner;\n    address twin;\n\n    constructor() public {\n        owner = msg.sender;\n        state = LotteryState.Creating;\n    }\n\n    enum LotteryState { Creating, Ready, Accept, Verify, Publish, Finished }\n\n    LotteryState state;\n\n    function enterHash(bytes32 x) public payable {\n        require(state == LotteryState.Accept);\n        require(msg.value > .001 ether);\n        playersHash[msg.sender] = x;\n    }\n\n    function enterNumber(uint8 number) public {\n        require(state == LotteryState.Verify);\n        require(number<=250);\n        require(keccak256(abi.encodePacked(number, msg.sender)) == playersHash[msg.sender]);\n        playersByNumber[number].push(msg.sender);\n        numbers.push(number);\n    }\n\n    function determineWinner() public {\n        require(msg.sender == owner);\n\n        state = LotteryState.Finished;\n\n        uint8 winningNumber = random();\n\n        distributeFunds(winningNumber);\n    }\n\n    function distributeFunds(uint8 winningNumber) private returns(uint256) {\n        uint256 winnerCount = playersByNumber[winningNumber].length;\n        require(winnerCount == 1);\n        if (winnerCount > 0) {\n            uint256 balanceToDistribute = address(this).balance/(2*winnerCount);\n            for (uint i = 0; i<winnerCount; i++) {\n                require(i==0);\n                playersByNumber[winningNumber][i].transfer(balanceToDistribute);\n            }\n        }\n\n        return address(this).balance;\n    }\n\n    function random() private view returns (uint8) {\n        uint8 randomNumber = numbers[0];\n        for (uint8 i = 1; i < numbers.length; ++i) {\n            randomNumber ^= numbers[i];\n        }\n        return randomNumber;\n    }\n\n    // Contract management\n    function end() public {\n        require(msg.sender == owner);\n        selfdestruct(owner);\n    }\n\n    function setTwin(address targetTwin) public {\n        require(msg.sender == owner);\n        require(twin == address(0));\n        twin = targetTwin;\n    }\n\n    function lockContract() public {\n        require(msg.sender == owner);\n        require(state == LotteryState.Creating);\n        require(twin != address(0));\n        state = LotteryState.Ready;\n    }\n\n    function runAcceptPhase() public {\n        require(msg.sender == owner);\n        require(state == LotteryState.Ready);\n        state = LotteryState.Accept;\n    }\n\n    function runVerifyPhase() public {\n        require(msg.sender == owner);\n        require(state == LotteryState.Accept);\n        state = LotteryState.Verify;\n    }\n}",
  "sourcePath": "/Users/mvid/Development/lottery/contracts/lottery.sol",
  "compiler": {
    "name": "solc",
    "version": "0.4.24+commit.e67f0147.Emscripten.clang"
  },
  "schemaVersion": "2.0.1",
  "updatedAt": "2018-07-31T04:11:07.316Z"
}